{
  "contractName": "Adoption",
  "abi": [
    {
      "inputs": [],
      "stateMutability": "payable",
      "type": "constructor",
      "payable": true
    },
    {
      "inputs": [
        {
          "internalType": "uint256",
          "name": "",
          "type": "uint256"
        }
      ],
      "name": "adopters",
      "outputs": [
        {
          "internalType": "uint256",
          "name": "adopterId",
          "type": "uint256"
        },
        {
          "internalType": "address",
          "name": "addr",
          "type": "address"
        },
        {
          "internalType": "uint256",
          "name": "petsAdopted",
          "type": "uint256"
        },
        {
          "internalType": "string",
          "name": "adopterPhone",
          "type": "string"
        },
        {
          "internalType": "string",
          "name": "adopterAddress",
          "type": "string"
        }
      ],
      "stateMutability": "view",
      "type": "function",
      "constant": true
    },
    {
      "inputs": [
        {
          "internalType": "uint256",
          "name": "",
          "type": "uint256"
        }
      ],
      "name": "pets",
      "outputs": [
        {
          "internalType": "uint256",
          "name": "petId",
          "type": "uint256"
        },
        {
          "internalType": "uint256",
          "name": "registerTime",
          "type": "uint256"
        },
        {
          "internalType": "string",
          "name": "breed",
          "type": "string"
        },
        {
          "internalType": "uint256",
          "name": "age",
          "type": "uint256"
        },
        {
          "internalType": "bool",
          "name": "adopted",
          "type": "bool"
        },
        {
          "internalType": "int256",
          "name": "adopterId",
          "type": "int256"
        },
        {
          "internalType": "string",
          "name": "vetPhoneNumber",
          "type": "string"
        },
        {
          "components": [
            {
              "internalType": "string",
              "name": "addressInfo",
              "type": "string"
            },
            {
              "internalType": "string",
              "name": "phoneNumber",
              "type": "string"
            }
          ],
          "internalType": "struct Adoption.currentOwner",
          "name": "currentOwnerInfo",
          "type": "tuple"
        },
        {
          "components": [
            {
              "internalType": "bool",
              "name": "vaccinated",
              "type": "bool"
            },
            {
              "internalType": "uint256",
              "name": "vaccineConfirmationCode",
              "type": "uint256"
            },
            {
              "internalType": "string",
              "name": "diseases",
              "type": "string"
            },
            {
              "internalType": "bool",
              "name": "desinsectization",
              "type": "bool"
            }
          ],
          "internalType": "struct Adoption.healthState",
          "name": "healthStateInfo",
          "type": "tuple"
        },
        {
          "internalType": "bool",
          "name": "losted",
          "type": "bool"
        },
        {
          "internalType": "address",
          "name": "finder",
          "type": "address"
        },
        {
          "internalType": "string",
          "name": "finderPhone",
          "type": "string"
        }
      ],
      "stateMutability": "view",
      "type": "function",
      "constant": true
    },
    {
      "inputs": [
        {
          "internalType": "string",
          "name": "breed",
          "type": "string"
        },
        {
          "internalType": "uint256",
          "name": "age",
          "type": "uint256"
        },
        {
          "internalType": "string",
          "name": "vetPhoneNumber",
          "type": "string"
        },
        {
          "internalType": "string",
          "name": "addressInfo",
          "type": "string"
        },
        {
          "internalType": "string",
          "name": "phoneNumber",
          "type": "string"
        },
        {
          "internalType": "bool",
          "name": "vaccinated",
          "type": "bool"
        },
        {
          "internalType": "uint256",
          "name": "vaccineConfirmationCode",
          "type": "uint256"
        },
        {
          "internalType": "string",
          "name": "diseases",
          "type": "string"
        },
        {
          "internalType": "bool",
          "name": "desinsectization",
          "type": "bool"
        }
      ],
      "name": "newPetRegister",
      "outputs": [],
      "stateMutability": "payable",
      "type": "function",
      "payable": true
    },
    {
      "inputs": [
        {
          "internalType": "string",
          "name": "adopterPhone",
          "type": "string"
        },
        {
          "internalType": "string",
          "name": "adopterAddress",
          "type": "string"
        }
      ],
      "name": "adopterRegister",
      "outputs": [],
      "stateMutability": "nonpayable",
      "type": "function"
    },
    {
      "inputs": [
        {
          "internalType": "uint256",
          "name": "petId",
          "type": "uint256"
        },
        {
          "internalType": "uint256",
          "name": "adopterId",
          "type": "uint256"
        }
      ],
      "name": "adopt",
      "outputs": [],
      "stateMutability": "payable",
      "type": "function",
      "payable": true
    },
    {
      "inputs": [
        {
          "internalType": "uint256",
          "name": "petId",
          "type": "uint256"
        }
      ],
      "name": "getPetInfo",
      "outputs": [
        {
          "components": [
            {
              "internalType": "uint256",
              "name": "petId",
              "type": "uint256"
            },
            {
              "internalType": "uint256",
              "name": "registerTime",
              "type": "uint256"
            },
            {
              "internalType": "string",
              "name": "breed",
              "type": "string"
            },
            {
              "internalType": "uint256",
              "name": "age",
              "type": "uint256"
            },
            {
              "internalType": "bool",
              "name": "adopted",
              "type": "bool"
            },
            {
              "internalType": "int256",
              "name": "adopterId",
              "type": "int256"
            },
            {
              "internalType": "string",
              "name": "vetPhoneNumber",
              "type": "string"
            },
            {
              "components": [
                {
                  "internalType": "string",
                  "name": "addressInfo",
                  "type": "string"
                },
                {
                  "internalType": "string",
                  "name": "phoneNumber",
                  "type": "string"
                }
              ],
              "internalType": "struct Adoption.currentOwner",
              "name": "currentOwnerInfo",
              "type": "tuple"
            },
            {
              "components": [
                {
                  "internalType": "bool",
                  "name": "vaccinated",
                  "type": "bool"
                },
                {
                  "internalType": "uint256",
                  "name": "vaccineConfirmationCode",
                  "type": "uint256"
                },
                {
                  "internalType": "string",
                  "name": "diseases",
                  "type": "string"
                },
                {
                  "internalType": "bool",
                  "name": "desinsectization",
                  "type": "bool"
                }
              ],
              "internalType": "struct Adoption.healthState",
              "name": "healthStateInfo",
              "type": "tuple"
            },
            {
              "internalType": "bool",
              "name": "losted",
              "type": "bool"
            },
            {
              "internalType": "address",
              "name": "finder",
              "type": "address"
            },
            {
              "internalType": "string",
              "name": "finderPhone",
              "type": "string"
            }
          ],
          "internalType": "struct Adoption.petInfo",
          "name": "",
          "type": "tuple"
        }
      ],
      "stateMutability": "view",
      "type": "function",
      "constant": true
    },
    {
      "inputs": [
        {
          "internalType": "uint256",
          "name": "petId",
          "type": "uint256"
        },
        {
          "internalType": "uint256",
          "name": "adopterId",
          "type": "uint256"
        }
      ],
      "name": "reportPetLost",
      "outputs": [],
      "stateMutability": "payable",
      "type": "function",
      "payable": true
    },
    {
      "inputs": [
        {
          "internalType": "uint256",
          "name": "petId",
          "type": "uint256"
        },
        {
          "internalType": "string",
          "name": "phone",
          "type": "string"
        }
      ],
      "name": "reportPetFound",
      "outputs": [],
      "stateMutability": "nonpayable",
      "type": "function"
    },
    {
      "inputs": [
        {
          "internalType": "uint256",
          "name": "petId",
          "type": "uint256"
        },
        {
          "internalType": "uint256",
          "name": "adopterId",
          "type": "uint256"
        }
      ],
      "name": "reportPetReceived",
      "outputs": [],
      "stateMutability": "payable",
      "type": "function",
      "payable": true
    },
    {
      "inputs": [],
      "name": "getAdopterId",
      "outputs": [
        {
          "internalType": "uint256",
          "name": "",
          "type": "uint256"
        }
      ],
      "stateMutability": "view",
      "type": "function",
      "constant": true
    }
  ],
  "bytecode": "0x608060405260006130d95560006130da55346130d881905550613957806100276000396000f3fe6080604052600436106100915760003560e01c8063655be14111610059578063655be1411461015657806369c3f3161461017f578063abe3787d146101bc578063ce2145a0146101d8578063cfb869bf1461020157610091565b80631068b83e146100965780632fca825a146100c157806343ae80d3146100dd578063552e34db1461011e5780635c2a9d8c1461013a575b600080fd5b3480156100a257600080fd5b506100ab610249565b6040516100b8919061351e565b60405180910390f35b6100db60048036038101906100d691906129e9565b610325565b005b3480156100e957600080fd5b5061010460048036038101906100ff9190612b27565b610807565b604051610115959493929190613539565b60405180910390f35b61013860048036038101906101339190612ba4565b610974565b005b610154600480360381019061014f9190612ba4565b610ea4565b005b34801561016257600080fd5b5061017d6004803603810190610178919061297d565b61142d565b005b34801561018b57600080fd5b506101a660048036038101906101a19190612b27565b611792565b6040516101b391906134fc565b60405180910390f35b6101d660048036038101906101d19190612ba4565b611cdd565b005b3480156101e457600080fd5b506101ff60048036038101906101fa9190612b50565b6120fd565b005b34801561020d57600080fd5b5061022860048036038101906102239190612b27565b6122da565b6040516102409c9b9a9998979695949392919061359a565b60405180910390f35b6000600115156130d460003373ffffffffffffffffffffffffffffffffffffffff1673ffffffffffffffffffffffffffffffffffffffff16815260200190815260200160002060009054906101000a900460ff161515146102df576040517f08c379a00000000000000000000000000000000000000000000000000000000081526004016102d6906133dc565b60405180910390fd5b6130d560003373ffffffffffffffffffffffffffffffffffffffff1673ffffffffffffffffffffffffffffffffffffffff16815260200190815260200160002054905090565b6706f05b59d3b200006130d8541015610373576040517f08c379a000000000000000000000000000000000000000000000000000000000815260040161036a9061339c565b60405180910390fd5b60056130d660003373ffffffffffffffffffffffffffffffffffffffff1673ffffffffffffffffffffffffffffffffffffffff16815260200190815260200160002054106103f6576040517f08c379a00000000000000000000000000000000000000000000000000000000081526004016103ed906133bc565b60405180910390fd5b60016130d660003373ffffffffffffffffffffffffffffffffffffffff1673ffffffffffffffffffffffffffffffffffffffff16815260200190815260200160002060008282546104479190613705565b9250508190555060006040518060400160405280888152602001878152509050600060405180608001604052808715158152602001868152602001858152602001841515815250905060006040518061018001604052806130d95481526020014281526020018d81526020018c81526020016000151581526020017fffffffffffffffffffffffffffffffffffffffffffffffffffffffffffffffff81526020018b8152602001848152602001838152602001600015158152602001600073ffffffffffffffffffffffffffffffffffffffff168152602001604051806020016040528060008152508152509050806113886130d9546101f48110610575577f4e487b7100000000000000000000000000000000000000000000000000000000600052603260045260246000fd5b600f0201600082015181600001556020820151816001015560408201518160020190805190602001906105a992919061271e565b506060820151816003015560808201518160040160006101000a81548160ff02191690831515021790555060a0820151816005015560c08201518160060190805190602001906105fa92919061271e565b5060e082015181600701600082015181600001908051906020019061062092919061271e565b50602082015181600101908051906020019061063d92919061271e565b5050506101008201518160090160008201518160000160006101000a81548160ff02191690831515021790555060208201518160010155604082015181600201908051906020019061069092919061271e565b5060608201518160030160006101000a81548160ff021916908315150217905550505061012082015181600d0160006101000a81548160ff02191690831515021790555061014082015181600d0160016101000a81548173ffffffffffffffffffffffffffffffffffffffff021916908373ffffffffffffffffffffffffffffffffffffffff16021790555061016082015181600e01908051906020019061073992919061271e565b5090505060016130d760006130d954815260200190815260200160002060006101000a81548160ff02191690831515021790555060016130d960008282546107819190613705565b925050819055506706f05b59d3b200006130d860008282546107a3919061375b565b925050819055503373ffffffffffffffffffffffffffffffffffffffff166108fc6706f05b59d3b200009081150290604051600060405180830381858888f193505050501580156107f8573d6000803e3d6000fd5b50505050505050505050505050565b6000816101f4811061081857600080fd5b600a02016000915090508060000154908060010160009054906101000a900473ffffffffffffffffffffffffffffffffffffffff169080600201549080600801805461086390613823565b80601f016020809104026020016040519081016040528092919081815260200182805461088f90613823565b80156108dc5780601f106108b1576101008083540402835291602001916108dc565b820191906000526020600020905b8154815290600101906020018083116108bf57829003601f168201915b5050505050908060090180546108f190613823565b80601f016020809104026020016040519081016040528092919081815260200182805461091d90613823565b801561096a5780601f1061093f5761010080835404028352916020019161096a565b820191906000526020600020905b81548152906001019060200180831161094d57829003601f168201915b5050505050905085565b670de0b6b3a76400006130d85410156109c2576040517f08c379a00000000000000000000000000000000000000000000000000000000081526004016109b99061339c565b60405180910390fd5b600115156130d7600084815260200190815260200160002060009054906101000a900460ff16151514610a2a576040517f08c379a0000000000000000000000000000000000000000000000000000000008152600401610a219061345c565b60405180910390fd5b60011515611388836101f48110610a6a577f4e487b7100000000000000000000000000000000000000000000000000000000600052603260045260246000fd5b600f0201600d0160009054906101000a900460ff16151514610ac1576040517f08c379a0000000000000000000000000000000000000000000000000000000008152600401610ab8906133fc565b60405180910390fd5b600115156130d460003373ffffffffffffffffffffffffffffffffffffffff1673ffffffffffffffffffffffffffffffffffffffff16815260200190815260200160002060009054906101000a900460ff16151514610b55576040517f08c379a0000000000000000000000000000000000000000000000000000000008152600401610b4c906133dc565b60405180910390fd5b3373ffffffffffffffffffffffffffffffffffffffff166000826101f48110610ba7577f4e487b7100000000000000000000000000000000000000000000000000000000600052603260045260246000fd5b600a020160010160009054906101000a900473ffffffffffffffffffffffffffffffffffffffff1673ffffffffffffffffffffffffffffffffffffffff1614610c25576040517f08c379a0000000000000000000000000000000000000000000000000000000008152600401610c1c9061341c565b60405180910390fd5b80611388836101f48110610c62577f4e487b7100000000000000000000000000000000000000000000000000000000600052603260045260246000fd5b600f02016005015414610caa576040517f08c379a0000000000000000000000000000000000000000000000000000000008152600401610ca19061337c565b60405180910390fd5b6000611388836101f48110610ce8577f4e487b7100000000000000000000000000000000000000000000000000000000600052603260045260246000fd5b600f0201600d0160019054906101000a900473ffffffffffffffffffffffffffffffffffffffff16905060001515611388846101f48110610d52577f4e487b7100000000000000000000000000000000000000000000000000000000600052603260045260246000fd5b600f0201600d0160009054906101000a905050506000611388846101f48110610da4577f4e487b7100000000000000000000000000000000000000000000000000000000600052603260045260246000fd5b600f0201600d0160016101000a81548173ffffffffffffffffffffffffffffffffffffffff021916908373ffffffffffffffffffffffffffffffffffffffff16021790555060405180602001604052806000815250611388846101f48110610e35577f4e487b7100000000000000000000000000000000000000000000000000000000600052603260045260246000fd5b600f0201600e019080519060200190610e4f92919061271e565b508073ffffffffffffffffffffffffffffffffffffffff166108fc670de0b6b3a76400009081150290604051600060405180830381858888f19350505050158015610e9e573d6000803e3d6000fd5b50505050565b670de0b6b3a7640000341015610eef576040517f08c379a0000000000000000000000000000000000000000000000000000000008152600401610ee69061335c565b60405180910390fd5b600115156130d7600084815260200190815260200160002060009054906101000a900460ff16151514610f57576040517f08c379a0000000000000000000000000000000000000000000000000000000008152600401610f4e9061345c565b60405180910390fd5b60001515611388836101f48110610f97577f4e487b7100000000000000000000000000000000000000000000000000000000600052603260045260246000fd5b600f020160040160009054906101000a900460ff16151514610fee576040517f08c379a0000000000000000000000000000000000000000000000000000000008152600401610fe5906134dc565b60405180910390fd5b600115156130d460003373ffffffffffffffffffffffffffffffffffffffff1673ffffffffffffffffffffffffffffffffffffffff16815260200190815260200160002060009054906101000a900460ff16151514611082576040517f08c379a0000000000000000000000000000000000000000000000000000000008152600401611079906133dc565b60405180910390fd5b3373ffffffffffffffffffffffffffffffffffffffff166000826101f481106110d4577f4e487b7100000000000000000000000000000000000000000000000000000000600052603260045260246000fd5b600a020160010160009054906101000a900473ffffffffffffffffffffffffffffffffffffffff1673ffffffffffffffffffffffffffffffffffffffff1614611152576040517f08c379a00000000000000000000000000000000000000000000000000000000081526004016111499061341c565b60405180910390fd5b60056000826101f4811061118f577f4e487b7100000000000000000000000000000000000000000000000000000000600052603260045260246000fd5b600a020160020154106111d7576040517f08c379a00000000000000000000000000000000000000000000000000000000081526004016111ce9061343c565b60405180910390fd5b670de0b6b3a7640000341115611242573373ffffffffffffffffffffffffffffffffffffffff166108fc670de0b6b3a764000034611215919061375b565b9081150290604051600060405180830381858888f19350505050158015611240573d6000803e3d6000fd5b505b670de0b6b3a76400006130d8600082825461125d9190613705565b925050819055506001611388836101f481106112a2577f4e487b7100000000000000000000000000000000000000000000000000000000600052603260045260246000fd5b600f020160040160006101000a81548160ff02191690831515021790555080611388836101f481106112fd577f4e487b7100000000000000000000000000000000000000000000000000000000600052603260045260246000fd5b600f020160050181905550600080826101f48110611344577f4e487b7100000000000000000000000000000000000000000000000000000000600052603260045260246000fd5b600a0201600201549050826000836101f4811061138a577f4e487b7100000000000000000000000000000000000000000000000000000000600052603260045260246000fd5b600a020160030182600581106113c9577f4e487b7100000000000000000000000000000000000000000000000000000000600052603260045260246000fd5b018190555060016000836101f4811061140b577f4e487b7100000000000000000000000000000000000000000000000000000000600052603260045260246000fd5b600a020160020160008282546114219190613705565b92505081905550505050565b600015156130d460003373ffffffffffffffffffffffffffffffffffffffff1673ffffffffffffffffffffffffffffffffffffffff16815260200190815260200160002060009054906101000a900460ff161515146114c1576040517f08c379a00000000000000000000000000000000000000000000000000000000081526004016114b89061347c565b60405180910390fd5b60006040518060c001604052806130da5481526020013373ffffffffffffffffffffffffffffffffffffffff168152602001600081526020016040518060a001604052807fffffffffffffffffffffffffffffffffffffffffffffffffffffffffffffffff81526020017fffffffffffffffffffffffffffffffffffffffffffffffffffffffffffffffff81526020017fffffffffffffffffffffffffffffffffffffffffffffffffffffffffffffffff81526020017fffffffffffffffffffffffffffffffffffffffffffffffffffffffffffffffff81526020017fffffffffffffffffffffffffffffffffffffffffffffffffffffffffffffffff81525081526020018481526020018381525090508060006130da546101f48110611611577f4e487b7100000000000000000000000000000000000000000000000000000000600052603260045260246000fd5b600a02016000820151816000015560208201518160010160006101000a81548173ffffffffffffffffffffffffffffffffffffffff021916908373ffffffffffffffffffffffffffffffffffffffff160217905550604082015181600201556060820151816003019060056116879291906127a4565b5060808201518160080190805190602001906116a492919061271e565b5060a08201518160090190805190602001906116c192919061271e565b5090505060016130da60008282546116d99190613705565b9250508190555060016130d460003373ffffffffffffffffffffffffffffffffffffffff1673ffffffffffffffffffffffffffffffffffffffff16815260200190815260200160002060006101000a81548160ff02191690831515021790555060016130da54611749919061375b565b6130d560003373ffffffffffffffffffffffffffffffffffffffff1673ffffffffffffffffffffffffffffffffffffffff16815260200190815260200160002081905550505050565b61179a6127e4565b600115156130d7600084815260200190815260200160002060009054906101000a900460ff16151514611802576040517f08c379a00000000000000000000000000000000000000000000000000000000081526004016117f99061345c565b60405180910390fd5b611388826101f4811061183e577f4e487b7100000000000000000000000000000000000000000000000000000000600052603260045260246000fd5b600f020160405180610180016040529081600082015481526020016001820154815260200160028201805461187290613823565b80601f016020809104026020016040519081016040528092919081815260200182805461189e90613823565b80156118eb5780601f106118c0576101008083540402835291602001916118eb565b820191906000526020600020905b8154815290600101906020018083116118ce57829003601f168201915b50505050508152602001600382015481526020016004820160009054906101000a900460ff161515151581526020016005820154815260200160068201805461193390613823565b80601f016020809104026020016040519081016040528092919081815260200182805461195f90613823565b80156119ac5780601f10611981576101008083540402835291602001916119ac565b820191906000526020600020905b81548152906001019060200180831161198f57829003601f168201915b50505050508152602001600782016040518060400160405290816000820180546119d590613823565b80601f0160208091040260200160405190810160405280929190818152602001828054611a0190613823565b8015611a4e5780601f10611a2357610100808354040283529160200191611a4e565b820191906000526020600020905b815481529060010190602001808311611a3157829003601f168201915b50505050508152602001600182018054611a6790613823565b80601f0160208091040260200160405190810160405280929190818152602001828054611a9390613823565b8015611ae05780601f10611ab557610100808354040283529160200191611ae0565b820191906000526020600020905b815481529060010190602001808311611ac357829003601f168201915b5050505050815250508152602001600982016040518060800160405290816000820160009054906101000a900460ff1615151515815260200160018201548152602001600282018054611b3290613823565b80601f0160208091040260200160405190810160405280929190818152602001828054611b5e90613823565b8015611bab5780601f10611b8057610100808354040283529160200191611bab565b820191906000526020600020905b815481529060010190602001808311611b8e57829003601f168201915b505050505081526020016003820160009054906101000a900460ff1615151515815250508152602001600d820160009054906101000a900460ff16151515158152602001600d820160019054906101000a900473ffffffffffffffffffffffffffffffffffffffff1673ffffffffffffffffffffffffffffffffffffffff1673ffffffffffffffffffffffffffffffffffffffff168152602001600e82018054611c5490613823565b80601f0160208091040260200160405190810160405280929190818152602001828054611c8090613823565b8015611ccd5780601f10611ca257610100808354040283529160200191611ccd565b820191906000526020600020905b815481529060010190602001808311611cb057829003601f168201915b5050505050815250509050919050565b600115156130d7600084815260200190815260200160002060009054906101000a900460ff16151514611d45576040517f08c379a0000000000000000000000000000000000000000000000000000000008152600401611d3c9061345c565b60405180910390fd5b60001515611388836101f48110611d85577f4e487b7100000000000000000000000000000000000000000000000000000000600052603260045260246000fd5b600f0201600d0160009054906101000a900460ff16151514611ddc576040517f08c379a0000000000000000000000000000000000000000000000000000000008152600401611dd3906134bc565b60405180910390fd5b600115156130d460003373ffffffffffffffffffffffffffffffffffffffff1673ffffffffffffffffffffffffffffffffffffffff16815260200190815260200160002060009054906101000a900460ff16151514611e70576040517f08c379a0000000000000000000000000000000000000000000000000000000008152600401611e67906133dc565b60405180910390fd5b3373ffffffffffffffffffffffffffffffffffffffff166000826101f48110611ec2577f4e487b7100000000000000000000000000000000000000000000000000000000600052603260045260246000fd5b600a020160010160009054906101000a900473ffffffffffffffffffffffffffffffffffffffff1673ffffffffffffffffffffffffffffffffffffffff1614611f40576040517f08c379a0000000000000000000000000000000000000000000000000000000008152600401611f379061341c565b60405180910390fd5b80611388836101f48110611f7d577f4e487b7100000000000000000000000000000000000000000000000000000000600052603260045260246000fd5b600f02016005015414611fc5576040517f08c379a0000000000000000000000000000000000000000000000000000000008152600401611fbc9061337c565b60405180910390fd5b670de0b6b3a7640000341015612010576040517f08c379a00000000000000000000000000000000000000000000000000000000081526004016120079061349c565b60405180910390fd5b670de0b6b3a764000034111561207b573373ffffffffffffffffffffffffffffffffffffffff166108fc670de0b6b3a76400003461204e919061375b565b9081150290604051600060405180830381858888f19350505050158015612079573d6000803e3d6000fd5b505b670de0b6b3a76400006130d860008282546120969190613705565b925050819055506001611388836101f481106120db577f4e487b7100000000000000000000000000000000000000000000000000000000600052603260045260246000fd5b600f0201600d0160006101000a81548160ff0219169083151502179055505050565b600115156130d7600084815260200190815260200160002060009054906101000a900460ff16151514612165576040517f08c379a000000000000000000000000000000000000000000000000000000000815260040161215c9061345c565b60405180910390fd5b60011515611388836101f481106121a5577f4e487b7100000000000000000000000000000000000000000000000000000000600052603260045260246000fd5b600f0201600d0160009054906101000a900460ff161515146121fc576040517f08c379a00000000000000000000000000000000000000000000000000000000081526004016121f3906133fc565b60405180910390fd5b33611388836101f48110612239577f4e487b7100000000000000000000000000000000000000000000000000000000600052603260045260246000fd5b600f0201600d0160016101000a81548173ffffffffffffffffffffffffffffffffffffffff021916908373ffffffffffffffffffffffffffffffffffffffff16021790555080611388836101f481106122bb577f4e487b7100000000000000000000000000000000000000000000000000000000600052603260045260246000fd5b600f0201600e0190805190602001906122d592919061271e565b505050565b611388816101f481106122ec57600080fd5b600f020160009150905080600001549080600101549080600201805461231190613823565b80601f016020809104026020016040519081016040528092919081815260200182805461233d90613823565b801561238a5780601f1061235f5761010080835404028352916020019161238a565b820191906000526020600020905b81548152906001019060200180831161236d57829003601f168201915b5050505050908060030154908060040160009054906101000a900460ff16908060050154908060060180546123be90613823565b80601f01602080910402602001604051908101604052809291908181526020018280546123ea90613823565b80156124375780601f1061240c57610100808354040283529160200191612437565b820191906000526020600020905b81548152906001019060200180831161241a57829003601f168201915b5050505050908060070160405180604001604052908160008201805461245c90613823565b80601f016020809104026020016040519081016040528092919081815260200182805461248890613823565b80156124d55780601f106124aa576101008083540402835291602001916124d5565b820191906000526020600020905b8154815290600101906020018083116124b857829003601f168201915b505050505081526020016001820180546124ee90613823565b80601f016020809104026020016040519081016040528092919081815260200182805461251a90613823565b80156125675780601f1061253c57610100808354040283529160200191612567565b820191906000526020600020905b81548152906001019060200180831161254a57829003601f168201915b50505050508152505090806009016040518060800160405290816000820160009054906101000a900460ff16151515158152602001600182015481526020016002820180546125b590613823565b80601f01602080910402602001604051908101604052809291908181526020018280546125e190613823565b801561262e5780601f106126035761010080835404028352916020019161262e565b820191906000526020600020905b81548152906001019060200180831161261157829003601f168201915b505050505081526020016003820160009054906101000a900460ff1615151515815250509080600d0160009054906101000a900460ff169080600d0160019054906101000a900473ffffffffffffffffffffffffffffffffffffffff169080600e01805461269b90613823565b80601f01602080910402602001604051908101604052809291908181526020018280546126c790613823565b80156127145780601f106126e957610100808354040283529160200191612714565b820191906000526020600020905b8154815290600101906020018083116126f757829003601f168201915b505050505090508c565b82805461272a90613823565b90600052602060002090601f01602090048101928261274c5760008555612793565b82601f1061276557805160ff1916838001178555612793565b82800160010185558215612793579182015b82811115612792578251825591602001919060010190612777565b5b5090506127a0919061286b565b5090565b82600581019282156127d3579160200282015b828111156127d25782518255916020019190600101906127b7565b5b5090506127e09190612888565b5090565b60405180610180016040528060008152602001600081526020016060815260200160008152602001600015158152602001600081526020016060815260200161282b6128a5565b81526020016128386128bf565b8152602001600015158152602001600073ffffffffffffffffffffffffffffffffffffffff168152602001606081525090565b5b8082111561288457600081600090555060010161286c565b5090565b5b808211156128a1576000816000905550600101612889565b5090565b604051806040016040528060608152602001606081525090565b604051806080016040528060001515815260200160008152602001606081526020016000151581525090565b60006128fe6128f9846136a8565b613677565b90508281526020810184848401111561291657600080fd5b6129218482856137e1565b509392505050565b600081359050612938816138f3565b92915050565b600082601f83011261294f57600080fd5b813561295f8482602086016128eb565b91505092915050565b6000813590506129778161390a565b92915050565b6000806040838503121561299057600080fd5b600083013567ffffffffffffffff8111156129aa57600080fd5b6129b68582860161293e565b925050602083013567ffffffffffffffff8111156129d357600080fd5b6129df8582860161293e565b9150509250929050565b60008060008060008060008060006101208a8c031215612a0857600080fd5b60008a013567ffffffffffffffff811115612a2257600080fd5b612a2e8c828d0161293e565b9950506020612a3f8c828d01612968565b98505060408a013567ffffffffffffffff811115612a5c57600080fd5b612a688c828d0161293e565b97505060608a013567ffffffffffffffff811115612a8557600080fd5b612a918c828d0161293e565b96505060808a013567ffffffffffffffff811115612aae57600080fd5b612aba8c828d0161293e565b95505060a0612acb8c828d01612929565b94505060c0612adc8c828d01612968565b93505060e08a013567ffffffffffffffff811115612af957600080fd5b612b058c828d0161293e565b925050610100612b178c828d01612929565b9150509295985092959850929598565b600060208284031215612b3957600080fd5b6000612b4784828501612968565b91505092915050565b60008060408385031215612b6357600080fd5b6000612b7185828601612968565b925050602083013567ffffffffffffffff811115612b8e57600080fd5b612b9a8582860161293e565b9150509250929050565b60008060408385031215612bb757600080fd5b6000612bc585828601612968565b9250506020612bd685828601612968565b9150509250929050565b612be98161378f565b82525050565b612bf88161378f565b82525050565b612c07816137a1565b82525050565b612c16816137a1565b82525050565b612c25816137ad565b82525050565b612c34816137ad565b82525050565b6000612c45826136d8565b612c4f81856136e3565b9350612c5f8185602086016137f0565b612c68816138e2565b840191505092915050565b6000612c7e826136d8565b612c8881856136f4565b9350612c988185602086016137f0565b612ca1816138e2565b840191505092915050565b6000612cb96019836136f4565b91507f61646f7074696e672072657175697265732031206574686572000000000000006000830152602082019050919050565b6000612cf96027836136f4565b91507f7468697320706574206973206e6f742061646f7074656420627920746869732060008301527f61646f70746572000000000000000000000000000000000000000000000000006020830152604082019050919050565b6000612d5f601a836136f4565b91507f636f6e74726163742066756e6420696e73756666696369656e740000000000006000830152602082019050919050565b6000612d9f6023836136f4565b91507f6f776e65722068617320616c726561647920726567697374657265642035207060008301527f65747300000000000000000000000000000000000000000000000000000000006020830152604082019050919050565b6000612e05602f836136f4565b91507f6d6573736167652073656e64657220686173206e6f742072656769737465726560008301527f6420617320616e2061646f7074657200000000000000000000000000000000006020830152604082019050919050565b6000612e6b6014836136f4565b91507f7468697320706574206973206e6f74206c6f73740000000000000000000000006000830152602082019050919050565b6000612eab6038836136f4565b91507f70726f76696465642061646f70746572496420646f6573206e6f74206d61746360008301527f68206d6573736167652073656e646572206164647265737300000000000000006020830152604082019050919050565b6000612f116022836136f4565b91507f61646f707465722068617320616c72656164792061646f70746564203520706560008301527f74730000000000000000000000000000000000000000000000000000000000006020830152604082019050919050565b6000612f776014836136f4565b91507f706574496420646f6573206e6f742065786973740000000000000000000000006000830152602082019050919050565b6000612fb7601e836136f4565b91507f61646f707465722068617320616c7265616479207265676973746572656400006000830152602082019050919050565b6000612ff76020836136f4565b91507f706574206c6f7374207265706f727420726571756972657320312065746865726000830152602082019050919050565b60006130376022836136f4565b91507f706574206c6f73742068617320616c7265616479206265656e207265706f727460008301527f65640000000000000000000000000000000000000000000000000000000000006020830152604082019050919050565b600061309d601c836136f4565b91507f7065742068617320616c7265616479206265656e2061646f70746564000000006000830152602082019050919050565b600060408301600083015184820360008601526130ed8282612c3a565b915050602083015184820360208601526131078282612c3a565b9150508091505092915050565b600060408301600083015184820360008601526131318282612c3a565b9150506020830151848203602086015261314b8282612c3a565b9150508091505092915050565b60006080830160008301516131706000860182612bfe565b506020830151613183602086018261333e565b506040830151848203604086015261319b8282612c3a565b91505060608301516131b06060860182612bfe565b508091505092915050565b60006080830160008301516131d36000860182612bfe565b5060208301516131e6602086018261333e565b50604083015184820360408601526131fe8282612c3a565b91505060608301516132136060860182612bfe565b508091505092915050565b600061018083016000830151613237600086018261333e565b50602083015161324a602086018261333e565b50604083015184820360408601526132628282612c3a565b9150506060830151613277606086018261333e565b50608083015161328a6080860182612bfe565b5060a083015161329d60a0860182612c1c565b5060c083015184820360c08601526132b58282612c3a565b91505060e083015184820360e08601526132cf82826130d0565b9150506101008301518482036101008601526132eb8282613158565b915050610120830151613302610120860182612bfe565b50610140830151613317610140860182612be0565b506101608301518482036101608601526133318282612c3a565b9150508091505092915050565b613347816137d7565b82525050565b613356816137d7565b82525050565b6000602082019050818103600083015261337581612cac565b9050919050565b6000602082019050818103600083015261339581612cec565b9050919050565b600060208201905081810360008301526133b581612d52565b9050919050565b600060208201905081810360008301526133d581612d92565b9050919050565b600060208201905081810360008301526133f581612df8565b9050919050565b6000602082019050818103600083015261341581612e5e565b9050919050565b6000602082019050818103600083015261343581612e9e565b9050919050565b6000602082019050818103600083015261345581612f04565b9050919050565b6000602082019050818103600083015261347581612f6a565b9050919050565b6000602082019050818103600083015261349581612faa565b9050919050565b600060208201905081810360008301526134b581612fea565b9050919050565b600060208201905081810360008301526134d58161302a565b9050919050565b600060208201905081810360008301526134f581613090565b9050919050565b60006020820190508181036000830152613516818461321e565b905092915050565b6000602082019050613533600083018461334d565b92915050565b600060a08201905061354e600083018861334d565b61355b6020830187612bef565b613568604083018661334d565b818103606083015261357a8185612c73565b9050818103608083015261358e8184612c73565b90509695505050505050565b6000610180820190506135b0600083018f61334d565b6135bd602083018e61334d565b81810360408301526135cf818d612c73565b90506135de606083018c61334d565b6135eb608083018b612c0d565b6135f860a083018a612c2b565b81810360c083015261360a8189612c73565b905081810360e083015261361e8188613114565b905081810361010083015261363381876131bb565b9050613643610120830186612c0d565b613651610140830185612bef565b8181036101608301526136648184612c73565b90509d9c50505050505050505050505050565b6000604051905081810181811067ffffffffffffffff8211171561369e5761369d6138b3565b5b8060405250919050565b600067ffffffffffffffff8211156136c3576136c26138b3565b5b601f19601f8301169050602081019050919050565b600081519050919050565b600082825260208201905092915050565b600082825260208201905092915050565b6000613710826137d7565b915061371b836137d7565b9250827fffffffffffffffffffffffffffffffffffffffffffffffffffffffffffffffff038211156137505761374f613855565b5b828201905092915050565b6000613766826137d7565b9150613771836137d7565b92508282101561378457613783613855565b5b828203905092915050565b600061379a826137b7565b9050919050565b60008115159050919050565b6000819050919050565b600073ffffffffffffffffffffffffffffffffffffffff82169050919050565b6000819050919050565b82818337600083830152505050565b60005b8381101561380e5780820151818401526020810190506137f3565b8381111561381d576000848401525b50505050565b6000600282049050600182168061383b57607f821691505b6020821081141561384f5761384e613884565b5b50919050565b7f4e487b7100000000000000000000000000000000000000000000000000000000600052601160045260246000fd5b7f4e487b7100000000000000000000000000000000000000000000000000000000600052602260045260246000fd5b7f4e487b7100000000000000000000000000000000000000000000000000000000600052604160045260246000fd5b6000601f19601f8301169050919050565b6138fc816137a1565b811461390757600080fd5b50565b613913816137d7565b811461391e57600080fd5b5056fea26469706673582212200febf8c6e363a84d797f56e7600cc6171f11402ecef3ff2eb98ae07b196dafb264736f6c63430008000033",
  "immutableReferences": {},
  "source": "// SPDX-License-Identifier: MIT\npragma solidity ^0.8.0;\n\ncontract Adoption {\n    Adopter[500] public adopters;                               //array of adopters' information\n    petInfo[500] public pets;                                   //array of pets' information\n    mapping (address => bool) uniqueAdopter;                    //map each address to unique adopter to ensure they can only register once\n    mapping (address => uint) adopterIdAndAddress;              //map address to their adopter Id\n    mapping (address => uint256) originalOwnersPetRegistered;   //map address to people who send their pet away (5 maximum)\n    mapping (uint => bool) petExist;                            //map that make sure a petId exist\n    uint256 remainingFund;                                      //remaining fund of the contract\n    uint petIds = 0;                                            //count the pets\n    uint adopterIds = 0;                                        //count the adopters\n\n    constructor() payable {\n        remainingFund = msg.value;\n    }\n\n    //struct that keeps track of a pet's health statments(used inside pet info)\n    struct healthState {\n        bool vaccinated;\n        uint vaccineConfirmationCode;\n        string diseases;\n        bool desinsectization;\n    }\n    //struct that keeps the contact info of the people who send the pet away(used inside pet info)\n    struct currentOwner {\n        string addressInfo;\n        string phoneNumber;\n    }\n    //struct that keeps each pets' information\n    struct petInfo {\n        uint petId;                         //unique petId\n        uint registerTime;                  //time that the pet is registered\n        string breed;\n        uint age;\n        bool adopted;                       //if this pet has been adopted yet\n        int adopterId;                     //if adopted, the adopter's id(-1 if not adopted)\n        string vetPhoneNumber;\n        currentOwner currentOwnerInfo;\n        healthState healthStateInfo;\n        bool losted;                        //if this pet has been reported lost\n        address finder;                     //if the pet has been lost and found, the finder's address(0 if not losted)\n        string finderPhone;\n    }\n\n    //struct the keeps the adopters' information\n    struct Adopter {\n        uint adopterId;         //unique adopterId\n        address addr;           //adopter address\n        uint petsAdopted;       //number of pets adopter has adopted(5 max)\n        int[5] adoptPetId;      //petIds of the pets the adopter has adopted(all -1 if not adopted yet)\n        string adopterPhone;\n        string adopterAddress;\n    }\n\n    //Register a new pet into the system\n    function newPetRegister(string memory breed,\n        uint age, string memory vetPhoneNumber,\n        string memory addressInfo, string memory phoneNumber,\n        bool vaccinated, uint vaccineConfirmationCode,\n        string memory diseases, bool desinsectization) external payable {\n\n        require(remainingFund >= 5 * 1e17, \"contract fund insufficient\");\n        require(originalOwnersPetRegistered[msg.sender] < 5, \"owner has already registered 5 pets\");  //each address can at most register 5 pets in order to prevent abandon on purpose\n        \n        originalOwnersPetRegistered[msg.sender] += 1;\n        currentOwner memory ownerInfo = currentOwner(addressInfo, phoneNumber);\n        healthState memory healthInfo = healthState(vaccinated, vaccineConfirmationCode, diseases, desinsectization);\n        petInfo memory pet = petInfo(petIds, block.timestamp, breed, age, false, -1, vetPhoneNumber, ownerInfo, healthInfo, false, address(0), \"\");\n        pets[petIds] = pet;\n        petExist[petIds] = true;\n        petIds += 1;\n        \n        //transfer 0.5 ether if pet is successfully registered\n        remainingFund -= 5 * 1e17;\n        payable(msg.sender).transfer(5 * 1e17);\n    }\n\n    //Register a new adopter\n    //Returns the adopterId if successfully registered\n    function adopterRegister(string memory adopterPhone, string memory adopterAddress) external {\n        require(uniqueAdopter[msg.sender] == false, \"adopter has already registered\");    //each address can only register once\n\n        Adopter memory adopterInfo = Adopter(adopterIds, msg.sender, 0, [int256(-1),int256(-1),int256(-1),int256(-1),int256(-1)], adopterPhone, adopterAddress);\n        adopters[adopterIds] = adopterInfo;\n        adopterIds += 1;\n        uniqueAdopter[msg.sender] = true;\n        adopterIdAndAddress[msg.sender] = uint(adopterIds - 1);\n    }\n\n    //adopting a pet\n    function adopt(uint petId, uint adopterId) external payable {\n        require(msg.value >= 1 ether, \"adopting requires 1 ether\");                      //adopting requires 1 ether\n        require(petExist[petId] == true, \"petId does not exist\");                   //assert petId actually exist\n        require(pets[petId].adopted == false, \"pet has already been adopted\");              //assert that the pet has not been adopted yet\n        require(uniqueAdopter[msg.sender] == true, \"message sender has not registered as an adopter\");         //assert the adopterId actually exist\n        require(adopters[adopterId].addr == msg.sender, \"provided adopterId does not match message sender address\");    //assert the message sender is the adopter\n        require(adopters[adopterId].petsAdopted < 5, \"adopter has already adopted 5 pets\");       //assert the adopter has adopted less than 5 pets\n\n        if (msg.value > 1 ether) {\n            payable(msg.sender).transfer(msg.value - 1e18);\n        }\n        remainingFund += 1e18;\n\n        pets[petId].adopted = true;\n        pets[petId].adopterId = int(adopterId);\n        uint numPetsAdopted = adopters[adopterId].petsAdopted;\n        adopters[adopterId].adoptPetId[numPetsAdopted] = int(petId);\n        adopters[adopterId].petsAdopted += 1;\n    }\n\n    //get the pet's information in the system using petId\n    function getPetInfo(uint petId) external view returns(petInfo memory) {\n        require(petExist[petId] == true, \"petId does not exist\");\n        return pets[petId];\n    }\n\n    //report a pet that is lost\n    function reportPetLost(uint petId, uint adopterId) external payable {\n        require(petExist[petId] == true, \"petId does not exist\");                   //assert the pet exist\n        require(pets[petId].losted == false, \"pet lost has already been reported\");               //assert the pet has not been reported lost\n        require(uniqueAdopter[msg.sender] == true, \"message sender has not registered as an adopter\");         //assert the adopterId actually exist\n        require(adopters[adopterId].addr == msg.sender, \"provided adopterId does not match message sender address\"); //assert the message sender is the adopter\n        require(pets[petId].adopterId == int(adopterId), \"this pet is not adopted by this adopter\");        //assert the pet is adopted by the adopter\n        require(msg.value >= 1 ether, \"pet lost report requires 1 ether\");                      //reporting lost require 1 ether\n        \n\n        if (msg.value > 1 ether) {\n            payable(msg.sender).transfer(msg.value - 1e18);\n        }\n        remainingFund += 1e18;\n\n        pets[petId].losted = true;\n    }\n\n    //report a pet found\n    //returns the adopter's phone number for the finder to contact\n    function reportPetFound(uint petId, string memory phone) external {\n        require(petExist[petId] == true, \"petId does not exist\");       //assert the pet exist\n        require(pets[petId].losted == true, \"this pet is not lost\");    //assert the pet is reported lost\n        \n        pets[petId].finder = msg.sender;        //store the message sender's address as the pet's finder\n        pets[petId].finderPhone = phone;\n    }\n\n    //report a pet that's been found has been received\n    function reportPetReceived(uint petId, uint adopterId) external payable {\n        require(remainingFund >= 1e18, \"contract fund insufficient\");\n        require(petExist[petId] == true, \"petId does not exist\");                   //assert the pet exist\n        require(pets[petId].losted == true, \"this pet is not lost\");                //assert the pet is reported lost\n        require(uniqueAdopter[msg.sender] == true, \"message sender has not registered as an adopter\");         //assert the adopterId actually exist\n        require(adopters[adopterId].addr == msg.sender, \"provided adopterId does not match message sender address\"); //assert the message sender is the adopter\n        require(pets[petId].adopterId == int(adopterId), \"this pet is not adopted by this adopter\");        //assert the pet is adopted by the adopter\n\n        address finderAdd = pets[petId].finder;\n        pets[petId].losted == false;\n        pets[petId].finder = address(0);\n        pets[petId].finderPhone = \"\";\n\n        payable(finderAdd).transfer(1e18);                           //if confirmed, transfer 1 ether to the finder\n    }\n\n    function getAdopterId() external view returns(uint) {\n        require(uniqueAdopter[msg.sender] == true, \"message sender has not registered as an adopter\");         //assert the adopterId actually exist\n        return adopterIdAndAddress[msg.sender];\n    }\n}\n",
  "sourcePath": "C:\\Users\\krammer\\Desktop\\final\\contracts\\Adoption.sol",
  "compiler": {
    "name": "solc",
    "version": "0.8.0+commit.c7dfd78e.Emscripten.clang"
  },
  "schemaVersion": "3.4.8",
  "updatedAt": "2022-08-26T03:35:49.257Z",
  "networkType": "ethereum",
  "devdoc": {
    "kind": "dev",
    "methods": {},
    "version": 1
  },
  "userdoc": {
    "kind": "user",
    "methods": {},
    "version": 1
  }
}